{
  "contractName": "VotingSystem",
  "abi": [
    {
      "inputs": [
        {
          "internalType": "string[]",
          "name": "_candidateNames",
          "type": "string[]"
        }
      ],
      "stateMutability": "nonpayable",
      "type": "constructor"
    },
    {
      "anonymous": false,
      "inputs": [
        {
          "indexed": false,
          "internalType": "uint256",
          "name": "candidateId",
          "type": "uint256"
        }
      ],
      "name": "Voted",
      "type": "event"
    },
    {
      "inputs": [
        {
          "internalType": "uint256",
          "name": "",
          "type": "uint256"
        }
      ],
      "name": "candidates",
      "outputs": [
        {
          "internalType": "uint256",
          "name": "id",
          "type": "uint256"
        },
        {
          "internalType": "string",
          "name": "name",
          "type": "string"
        },
        {
          "internalType": "uint256",
          "name": "voteCount",
          "type": "uint256"
        }
      ],
      "stateMutability": "view",
      "type": "function"
    },
    {
      "inputs": [],
      "name": "candidatesCount",
      "outputs": [
        {
          "internalType": "uint256",
          "name": "",
          "type": "uint256"
        }
      ],
      "stateMutability": "view",
      "type": "function"
    },
    {
      "inputs": [
        {
          "internalType": "address",
          "name": "",
          "type": "address"
        }
      ],
      "name": "voters",
      "outputs": [
        {
          "internalType": "bool",
          "name": "",
          "type": "bool"
        }
      ],
      "stateMutability": "view",
      "type": "function"
    },
    {
      "inputs": [
        {
          "internalType": "uint256",
          "name": "_candidateId",
          "type": "uint256"
        }
      ],
      "name": "vote",
      "outputs": [],
      "stateMutability": "nonpayable",
      "type": "function"
    },
    {
      "inputs": [
        {
          "internalType": "uint256",
          "name": "_candidateId",
          "type": "uint256"
        }
      ],
      "name": "getCandidate",
      "outputs": [
        {
          "internalType": "uint256",
          "name": "",
          "type": "uint256"
        },
        {
          "internalType": "string",
          "name": "",
          "type": "string"
        },
        {
          "internalType": "uint256",
          "name": "",
          "type": "uint256"
        }
      ],
      "stateMutability": "view",
      "type": "function"
    }
  ],
  "bytecode": "0x608060405234801562000010575f80fd5b506040516200107b3803806200107b83398181016040528101906200003691906200038e565b5f6002819055505f5b81518110156200010957604051806060016040528060018362000063919062000413565b81526020018383815181106200007e576200007d6200044d565b5b602002602001015181526020015f8152505f80600184620000a0919062000413565b81526020019081526020015f205f820151815f01556020820151816001019081620000cc9190620006a8565b506040820151816002015590505060025f815480929190620000ee906200078c565b9190505550808062000100906200078c565b9150506200003f565b5050620007d8565b5f604051905090565b5f80fd5b5f80fd5b5f80fd5b5f601f19601f8301169050919050565b7f4e487b71000000000000000000000000000000000000000000000000000000005f52604160045260245ffd5b6200016e8262000126565b810181811067ffffffffffffffff8211171562000190576200018f62000136565b5b80604052505050565b5f620001a462000111565b9050620001b2828262000163565b919050565b5f67ffffffffffffffff821115620001d457620001d362000136565b5b602082029050602081019050919050565b5f80fd5b5f80fd5b5f67ffffffffffffffff8211156200020a576200020962000136565b5b620002158262000126565b9050602081019050919050565b5f5b838110156200024157808201518184015260208101905062000224565b5f8484015250505050565b5f620002626200025c84620001ed565b62000199565b905082815260208101848484011115620002815762000280620001e9565b5b6200028e84828562000222565b509392505050565b5f82601f830112620002ad57620002ac62000122565b5b8151620002bf8482602086016200024c565b91505092915050565b5f620002de620002d884620001b7565b62000199565b90508083825260208201905060208402830185811115620003045762000303620001e5565b5b835b818110156200035257805167ffffffffffffffff8111156200032d576200032c62000122565b5b8086016200033c898262000296565b8552602085019450505060208101905062000306565b5050509392505050565b5f82601f83011262000373576200037262000122565b5b815162000385848260208601620002c8565b91505092915050565b5f60208284031215620003a657620003a56200011a565b5b5f82015167ffffffffffffffff811115620003c657620003c56200011e565b5b620003d4848285016200035c565b91505092915050565b5f819050919050565b7f4e487b71000000000000000000000000000000000000000000000000000000005f52601160045260245ffd5b5f6200041f82620003dd565b91506200042c83620003dd565b9250828201905080821115620004475762000446620003e6565b5b92915050565b7f4e487b71000000000000000000000000000000000000000000000000000000005f52603260045260245ffd5b5f81519050919050565b7f4e487b71000000000000000000000000000000000000000000000000000000005f52602260045260245ffd5b5f6002820490506001821680620004c957607f821691505b602082108103620004df57620004de62000484565b5b50919050565b5f819050815f5260205f209050919050565b5f6020601f8301049050919050565b5f82821b905092915050565b5f60088302620005437fffffffffffffffffffffffffffffffffffffffffffffffffffffffffffffffff8262000506565b6200054f868362000506565b95508019841693508086168417925050509392505050565b5f819050919050565b5f620005906200058a6200058484620003dd565b62000567565b620003dd565b9050919050565b5f819050919050565b620005ab8362000570565b620005c3620005ba8262000597565b84845462000512565b825550505050565b5f90565b620005d9620005cb565b620005e6818484620005a0565b505050565b5b818110156200060d57620006015f82620005cf565b600181019050620005ec565b5050565b601f8211156200065c576200062681620004e5565b6200063184620004f7565b8101602085101562000641578190505b620006596200065085620004f7565b830182620005eb565b50505b505050565b5f82821c905092915050565b5f6200067e5f198460080262000661565b1980831691505092915050565b5f6200069883836200066d565b9150826002028217905092915050565b620006b3826200047a565b67ffffffffffffffff811115620006cf57620006ce62000136565b5b620006db8254620004b1565b620006e882828562000611565b5f60209050601f8311600181146200071e575f841562000709578287015190505b6200071585826200068b565b86555062000784565b601f1984166200072e86620004e5565b5f5b82811015620007575784890151825560018201915060208501945060208101905062000730565b8683101562000777578489015162000773601f8916826200066d565b8355505b6001600288020188555050505b505050505050565b5f6200079882620003dd565b91507fffffffffffffffffffffffffffffffffffffffffffffffffffffffffffffffff8203620007cd57620007cc620003e6565b5b600182019050919050565b61089580620007e65f395ff3fe608060405234801561000f575f80fd5b5060043610610055575f3560e01c80630121b93f146100595780632d35a8a2146100755780633477ee2e1461009357806335b8e820146100c5578063a3ec138d146100f7575b5f80fd5b610073600480360381019061006e91906104ed565b610127565b005b61007d6102b7565b60405161008a9190610527565b60405180910390f35b6100ad60048036038101906100a891906104ed565b6102bd565b6040516100bc939291906105ca565b60405180910390f35b6100df60048036038101906100da91906104ed565b610368565b6040516100ee939291906105ca565b60405180910390f35b610111600480360381019061010c9190610660565b610499565b60405161011e91906106a5565b60405180910390f35b60015f3373ffffffffffffffffffffffffffffffffffffffff1673ffffffffffffffffffffffffffffffffffffffff1681526020019081526020015f205f9054906101000a900460ff16156101b1576040517f08c379a00000000000000000000000000000000000000000000000000000000081526004016101a890610708565b60405180910390fd5b5f811180156101c257506002548111155b610201576040517f08c379a00000000000000000000000000000000000000000000000000000000081526004016101f890610770565b60405180910390fd5b5f808281526020019081526020015f206002015f815480929190610224906107bb565b91905055506001805f3373ffffffffffffffffffffffffffffffffffffffff1673ffffffffffffffffffffffffffffffffffffffff1681526020019081526020015f205f6101000a81548160ff0219169083151502179055507f7f511e347bf51eed3be100b3194247d5207f05f3b33de7d31e3e8ee73199a049816040516102ac9190610527565b60405180910390a150565b60025481565b5f602052805f5260405f205f91509050805f0154908060010180546102e19061082f565b80601f016020809104026020016040519081016040528092919081815260200182805461030d9061082f565b80156103585780601f1061032f57610100808354040283529160200191610358565b820191905f5260205f20905b81548152906001019060200180831161033b57829003601f168201915b5050505050908060020154905083565b5f60605f808411801561037d57506002548411155b6103bc576040517f08c379a00000000000000000000000000000000000000000000000000000000081526004016103b390610770565b60405180910390fd5b5f805f8681526020019081526020015f206040518060600160405290815f82015481526020016001820180546103f19061082f565b80601f016020809104026020016040519081016040528092919081815260200182805461041d9061082f565b80156104685780601f1061043f57610100808354040283529160200191610468565b820191905f5260205f20905b81548152906001019060200180831161044b57829003601f168201915b505050505081526020016002820154815250509050805f015181602001518260400151935093509350509193909250565b6001602052805f5260405f205f915054906101000a900460ff1681565b5f80fd5b5f819050919050565b6104cc816104ba565b81146104d6575f80fd5b50565b5f813590506104e7816104c3565b92915050565b5f60208284031215610502576105016104b6565b5b5f61050f848285016104d9565b91505092915050565b610521816104ba565b82525050565b5f60208201905061053a5f830184610518565b92915050565b5f81519050919050565b5f82825260208201905092915050565b5f5b8381101561057757808201518184015260208101905061055c565b5f8484015250505050565b5f601f19601f8301169050919050565b5f61059c82610540565b6105a6818561054a565b93506105b681856020860161055a565b6105bf81610582565b840191505092915050565b5f6060820190506105dd5f830186610518565b81810360208301526105ef8185610592565b90506105fe6040830184610518565b949350505050565b5f73ffffffffffffffffffffffffffffffffffffffff82169050919050565b5f61062f82610606565b9050919050565b61063f81610625565b8114610649575f80fd5b50565b5f8135905061065a81610636565b92915050565b5f60208284031215610675576106746104b6565b5b5f6106828482850161064c565b91505092915050565b5f8115159050919050565b61069f8161068b565b82525050565b5f6020820190506106b85f830184610696565b92915050565b7f596f75206861766520616c726561647920766f7465642e0000000000000000005f82015250565b5f6106f260178361054a565b91506106fd826106be565b602082019050919050565b5f6020820190508181035f83015261071f816106e6565b9050919050565b7f496e76616c69642063616e6469646174652049442e00000000000000000000005f82015250565b5f61075a60158361054a565b915061076582610726565b602082019050919050565b5f6020820190508181035f8301526107878161074e565b9050919050565b7f4e487b71000000000000000000000000000000000000000000000000000000005f52601160045260245ffd5b5f6107c5826104ba565b91507fffffffffffffffffffffffffffffffffffffffffffffffffffffffffffffffff82036107f7576107f661078e565b5b600182019050919050565b7f4e487b71000000000000000000000000000000000000000000000000000000005f52602260045260245ffd5b5f600282049050600182168061084657607f821691505b60208210810361085957610858610802565b5b5091905056fea264697066735822122088f12761481e2ea2946613fc9ccefc2c9b1b32183e36698a857177a7a3d5904364736f6c63430008150033",
  "immutableReferences": {},
  "source": "// SPDX-License-Identifier: MIT\npragma solidity ^0.8.21;\n\ncontract VotingSystem {\n    // Structure to represent a candidate\n    struct Candidate {\n        uint256 id;\n        string name;\n        uint256 voteCount;\n    }\n\n    // Mapping to store candidates\n    mapping(uint256 => Candidate) public candidates;\n\n    // Mapping to store voter's eligibility\n    mapping(address => bool) public voters;\n\n    // Variable to keep track of the total number of candidates\n    uint256 public candidatesCount;\n\n    // Event to notify when a vote is cast\n    event Voted(uint256 candidateId);\n\n    // Constructor to initialize candidates\n    constructor(string[] memory _candidateNames) {\n        candidatesCount = 0;\n        for (uint256 i = 0; i < _candidateNames.length; i++) {\n            candidates[i + 1] = Candidate(i + 1, _candidateNames[i], 0);\n            candidatesCount++;\n        }\n    }\n\n    // Function to cast a vote for a candidate\n    function vote(uint256 _candidateId) public {\n        require(!voters[msg.sender], \"You have already voted.\");\n        require(_candidateId > 0 && _candidateId <= candidatesCount, \"Invalid candidate ID.\");\n\n        candidates[_candidateId].voteCount++;\n        voters[msg.sender] = true;\n        emit Voted(_candidateId);\n    }\n\n    // Function to get the details of a candidate\n    function getCandidate(uint256 _candidateId) public view returns (uint256, string memory, uint256) {\n        require(_candidateId > 0 && _candidateId <= candidatesCount, \"Invalid candidate ID.\");\n        Candidate memory candidate = candidates[_candidateId];\n        return (candidate.id, candidate.name, candidate.voteCount);\n    }\n}",
  "sourcePath": "/home/ubuntu/environment/voting-sytem-sc/contracts/VotingSystem.sol",
  "compiler": {
    "name": "solc",
    "version": "0.8.21+commit.d9974bed.Emscripten.clang"
  },
  "schemaVersion": "3.4.16",
  "updatedAt": "2023-09-10T12:53:41.533Z",
  "devdoc": {
    "kind": "dev",
    "methods": {},
    "version": 1
  },
  "userdoc": {
    "kind": "user",
    "methods": {},
    "version": 1
  }
}